:020000040800F2
:1000000050080020010100082B2100085F1F000894
:10001000292100088B090008B12600080000000013
:100020000000000000000000000000005F22000847
:100030008D090008000000004D2100086122000821
:100040001B0100081B0100081B0100081B01000820
:100050001B0100081B0100081B0100081B01000810
:100060001B0100081B0100081B0100081B01000800
:100070001B0100081B0100081B0100081B010008F0
:100080001B0100081B0100081B0100081B010008E0
:100090001B0100081B0100081B0100081B010008D0
:1000A0001B0100081B0100081B0100081B010008C0
:1000B0001B0100081B010008212300081B01000888
:1000C0001B0100081B0100081B010008812100081A
:1000D0008D210008992600081B010008A5260008AC
:1000E0001B0100081B0100081B010008DFF80CD0F1
:1000F00000F018FC0048004779390008500800203B
:100100000648804706480047FEE7FEE7FEE7FEE7B1
:10011000FEE7FEE7FEE7FEE7FEE7FEE7D92200087E
:10012000ED000008202A04DB203A21FA02F0002129
:10013000704721FA02F3D040C2F1200291400843F7
:1001400019467047421C10F8011B0029FBD1801A88
:100150007047F0B480EA0102D40F4200B2EB410FC5
:1001600002D20246084611464A0042D0C30DDDB213
:10017000C1F3C752AD1A202D35DAC1F3160141F48F
:10018000000204B15242C5F1200602FA06F12A41EA
:100190001044B3EBD05F23D0C4B1012DA0EBC3500A
:1001A00009DCF0BC4FF0004202EAC352DBB200F5BA
:1001B000000000F003BA400000F1807000EBC35073
:1001C000A0F1807040EAD170490009E0490841EA95
:1001D000C071A0EBC35000F50000400800EBC35015
:1001E000F0BC00F0E2B96142012202EB4101001BC8
:1001F000F6E7F0BC704781F00041AAE780F00040CC
:10020000A7E730B480EA010202F0004530F0004276
:1002100021F0004013D090B1C30DD40DC2F31601EC
:10022000C0F31600E41A41F4000140F400027D34EA
:10023000914201D3641C00E04900002C02DA30BC7A
:10024000002070474FF400000023914201D3891A27
:10025000034340084FEA4101F7D151B1914202D125
:100260004FF0004105E002D24FF0010101E06FF0D4
:10027000010103EBC450284430BC00F096B94200A1
:1002800005D0C0F3C7525242914201DC00207047B2
:1002900000EBC15070472DE9FE4F81EA030404F0E2
:1002A000004421F0004100944FF0000B23F0004384
:1002B00050EA01045ED052EA03045BD0C3F30A544F
:1002C000C1F30A552C44A4F2F3340194A0FB025468
:1002D000C1F3130141F48011C3F3130343F48013FA
:1002E00001FB024400FB034E840A970A44EA81544E
:1002F00047EA8357A4FB076802958D0A05FB07852B
:100300004FEA932C04FB0C542705029D4FEA065834
:1003100047EA1637B5EB08056EEB070C870E920E11
:1003200047EA811742EA8312A7FB0201B6EB0B01F1
:1003300064EB00042B0D43EA0C335E1844EB1C50B5
:10034000DA465146E7FB0201C5F313044FEA0B33CB
:1003500043EA14534FEA0432019C43EA0603A4F132
:100360000C040294009CCDE900B400F064F903B0E1
:10037000BDE8F08F00200146F9E72DE9F04D81EA54
:10038000030404F0004B21F0004514464FF0000A2E
:1003900023F0004150EA050220D054EA01021DD0AA
:1003A000C5F30A570246C5F31303C1F31300C1F3A3
:1003B0000A5640F4801543F48013A7EB0608101B7F
:1003C000D64608F2FD3873EB050002D308F10108A8
:1003D00001E092185B41B8F1000F03DA00200146FA
:1003E000BDE8F08D00204FF48011064684460EE0F3
:1003F000171B73EB050705D3121B63EB05030643BD
:100400004CEA010C49084FEA300092185B4150EA6F
:100410000107EDD152EA030012D082EA040083EA18
:100420000501084305D0101BAB4106D20122002371
:1004300006E000224FF0004302E06FF0010253108B
:100440001AEB06004CEB085110EB0A0041EB0B01D4
:10045000BDE8F04D00F0E0B870B521F00043034373
:100460000CD0C1F30A550024D5EB040564EB04035A
:10047000D617AD1AB34102DB0020014670BD20182B
:1004800041EB025170BD96230022114600F096B850
:100490000EB540F2334102910021CDE900110A4628
:1004A0000B4600F0C8F803B000BD00F0004230F089
:1004B00000400AD0C10D01F56071C0F3160042EA98
:1004C0000151C208400711437047002001467047A0
:1004D00001F0004330B421F0004150EA010206D09F
:1004E0000A0DA2F56072C1F31301002A02DC30BCD0
:1004F00000207047440F44EAC104C100E01830BC3A
:1005000000EBC25000F051B8002801DBC0F1004000
:10051000002901DBC1F100418842704730B50B462C
:10052000014600202022012409E021FA02F59D4223
:1005300005D303FA02F5491B04FA02F52844151EF7
:10054000A2F10102F1DC30BD2DE9F05F054600208B
:1005500092469B4688460646814640241BE0284634
:10056000414647462246FFF7DDFD53465A46C01A2C
:10057000914110D311461846224600F0E5F92D1A94
:1005800067EB01084F4622460120002100F0DCF90C
:1005900017EB00094E41201EA4F10104DFDC4846A0
:1005A00031462A464346BDE8F09F0029A8BF704760
:1005B000401C490008BF20F00100704710B4B0FA99
:1005C00080FC00FA0CF050EA010404BF10BC704734
:1005D00049B1CCF1200421FA04F411FA0CF118BF4E
:1005E000012121430843A3EB0C01CB1D4FEA00611D
:1005F0004FEA102042BF002010BC704700EBC350F0
:1006000010440029A4BF10BC7047401C490008BF1B
:1006100020F0010010BC704710B5141E73F10004E7
:1006200008DA401C41F1000192185B411A4301D1E4
:1006300020F0010010BD2DE9F04D92469B4611B10E
:10064000B1FA81F202E0B0FA80F22032904600F076
:100650007BF904460F4640EA0A0041EA0B01534683
:100660005A46084313D0114653EA010019D0C8F185
:1006700040025046FFF756FD05460E465046594685
:10068000424600F061F9084305D0012004E020460D
:100690003946BDE8F08D0020054346EAE0762C435C
:1006A00037430A986305E40AA0EB08000022FD0A1C
:1006B00044EA47540A3002D500200146E9E7010523
:1006C00010196941DDE9084500196941BDE8F04D9F
:1006D000A2E72DE9FE4F804681EA0300C00F0C46D9
:1006E000009021F0004123F00045B8EB0200A94141
:1006F00005D24046214690461C460B46024623F052
:100700000040104347D0270DC7F30A00C3F30A5136
:100710000290401A019040286BDAC3F3130040F4B2
:10072000801B0098924620B10023D2EB030A63EBB2
:100730000B0B01985946C0F14002504600F004F9F5
:1007400006460D4650465946019A00F00CF910EB4A
:1007500008006141002487EA115284EAE7731A43D2
:1007600040D0009A62B3019A012A4FEA075215DC81
:10077000001B61EB02014FF0004202EA0752CDE993
:100780000042001C41F5801132462B46FFF753FF13
:1007900003B0BDE8F08F40462146F9E7001B61EB4E
:1007A0000201001C41F5801300185B412018A2F5DE
:1007B000001747EB030140EAD570B6196D4111E00F
:1007C0006D084FEA360645EAC0754FEA0752001B2E
:1007D00061EB0201001C41F5801149084FEA30002D
:1007E0000019514132462B4603B0BDE8F04FFFF7E8
:1007F00013BF0098012240000023D0EB020263EBFC
:10080000E073009821464FEAE074B8EB000061EB1A
:100810000401E9E783F000435BE781F0004158E71A
:100820002DE9F04D00231A461B1A8A4103DB0020F4
:100830000146BDE8F08DC1F30A52C1F3130141F442
:1008400080154FF0000BD10702D100186D41521EE8
:100850000027044640F2FF11384601EB620A3E468B
:100860008046024600204FF48011FFF75BFCC2195E
:100870007141BB1846EB0100B4EB030C75EB000CA7
:1008800004D3E41A65EB000517460E46241908F157
:1008900001006D4180463428E3DDF91946EB06007E
:1008A000091BA84103D24FF0FF32134601E000229A
:1008B00013461BEB070046EB0A51BDE8F04DFFF76E
:1008C000ABBEC1F30A52C1F3130140F2FF3341F44E
:1008D00080119A4202DA00200146704740F2334309
:1008E0009A42A2F2334202DC5242FFF71BBC00F0F4
:1008F0002BB8000030B5041E71F1000404DB4FF08A
:100900000044404264EB0101141E73F1000405DB56
:100910001C464FF00043524263EB0403994208BF68
:10092000904230BD064C074D06E0E06840F0010300
:1009300094E8070098471034AC42F6D3FFF7DAFB8F
:100940006C4200088C420008202A04DB203A00FA9E
:1009500002F1002070479140C2F1200320FA03F316
:10096000194390407047202A06DBCB17203A41FA02
:1009700002F043EAE07306E041FA02F3D040C2F12C
:1009800020029140084319467047FEE77047000077
:1009900010B590F821100024022903D004218163AE
:1009A00001243DE001680A6822F00E020A60016835
:1009B0000A6822F001020A601A4A0168914201D1D4
:1009C000012121E0174A1432914201D110211BE08C
:1009D000144A2832914201D1891515E0114A3C325E
:1009E000914201D189140FE00E4A5032914202D156
:1009F0004FF4803108E00B4A6432914202D14FF447
:100A0000801101E04FF08071064A083A51600121DF
:100A100080F82110002180F82010416B01B1884737
:100A2000204610BD0800024070B5044600F0F6F8FC
:100A30000546601C02D004480078044400F0EEF83B
:100A4000401BA042FAD370BD5C0000202DE9F84F96
:100A5000DFF890A100220AF1040B144601274FF0A1
:100A60000F090BF1040E00BF0B6807FA04F52B40C9
:100A7000AB4274D1DFF870C14E68A6EB0C08664536
:100A80002BD00DDC032E34D005DC36B3012E19D06B
:100A9000022E2FD11BE0112E16D0122E2AD119E0D2
:100AA000B8F5881F19D006DCB8F5803F15D0B8F529
:100AB000801F1FD111E0B8F5001F0ED0B8F5041F3C
:100AC00018D10AE0CA6815E0CA68121D12E0CA68A7
:100AD00008320FE0CA680C320CE08A682AB1012A99
:100AE0004FF0080203D0456104E0042202E00561F2
:100AF00000E00022FF2B01D8064601E000F10406C9
:100B00004FEA840501D9A5F12005D6F800C009FAFD
:100B100005F82CEA080C02FA05F54CEA050CC6F8B3
:100B200000C04D68ED0057D5304DAE6946F0010666
:100B3000AE61AD6924F0030605F0010500952C4D6A
:100B400006EB050CDCF80850A6074FEA167809FA00
:100B500008F6B543274EB04202D1002610E03BE034
:100B6000254EB04201D101260AE0244EB04201D107
:100B7000022605E0224EB04201D1032600E0042601
:100B800006FA08F62E43CCF808604D68DAF80060E3
:100B9000ED03554601D51E4300E09E432E604D688F
:100BA000DBF80060AD035D4601D51E4300E09E43C7
:100BB0002E604D68DEF80060ED02754601D51E43DB
:100BC00000E09E432E604D68AD020E4D2E6801D5AB
:100BD0001E4300E09E432E60641C102CFFF444AFC3
:100BE000BDE8F88F00040140000011100010024021
:100BF0000000014000080140000C014000100140CD
:100C0000001401400C040140C2684A40C2607047B1
:100C10000AB1016170470904FBE7000001488068E0
:100C2000704700005C00002002488168027811448F
:100C3000816070475C000020074810B5016841F0F2
:100C400010010160032000F09DF8002000F006F87C
:100C500000F024F8002010BD0020024070B50D4DBA
:100C600004464FF47A712878B1FBF0F00A4909681C
:100C7000B1FBF0F000F077FE48B9102C07D200224B
:100C80002146501E00F05EF800206C6070BD01200F
:100C900070BD00005C00002068000020214808B5FD
:100CA000816941F001018161816901F001010091D7
:100CB000C16941F08051C161C06900F0805000906D
:100CC000032000F05FF8002211466FF00B0000F0E7
:100CD00039F8002211466FF00A0000F033F80022C4
:100CE00011466FF0090000F02DF800221146501F48
:100CF00000F028F800221146101F00F023F800220F
:100D00001146901E00F01EF800221146501E00F001
:100D100019F80548416821F0E06141F00071416037
:100D200008BD0000001002400000014000F01F025A
:100D3000012191404009800000F1E020C0F800113D
:100D400070470000F0B40E4B1B680C46C3F302233F
:100D5000C3F10705042D00D90425191D072901D267
:100D6000002300E0DB1E012606FA05F1491E2140A2
:100D700099409E40761E16403143F0BC01F0D6B932
:100D80000CED00E0064900F0070208684FF6FF038B
:100D9000184040EA0220034A1043086070470000F0
:100DA0000CED00E00000FA052DE9F047DFF83C818A
:100DB00005460E46D8F8000000F00700B0420CD2FD
:100DC000D8F8001021F007013143C8F80010D8F816
:100DD000000000F00700B04263D12878444C80073F
:100DE00005D56068A96820F0F000084360602878A5
:100DF000C00745D06868012816D02168022816D09F
:100E0000890700294DDA616821F00301014361601F
:100E1000FFF704FF6968074641F2883001290FD0C7
:100E20000229814619D027E021688903E9E7890171
:100E3000E7E700BFFFF7F2FEC11B494501D918E003
:100E400081466068C0F381000128F3D118E000BF3B
:100E5000FFF7E4FEC11B49450BD86068C0F3810071
:100E60000228F5D10CE000BFFFF7D8FEC11B4945B1
:100E700002D90320BDE8F087606810F00C0FF3D1B1
:100E8000D8F80010404601F00701B1420BD90168C3
:100E900021F0070131430160006800F00700B04213
:100EA00001D00120E6E72878400705D56068E968A9
:100EB00020F4E060084360602878000706D5606889
:100EC000296920F4605040EAC100606000F03CF8FD
:100ED0006168084AC1F30311515CC84006490860C3
:100EE0000020FFF7BBFE0020C4E700000020024006
:100EF00000100240B440000868000020014800686B
:100F000070470000680000200448054900684968EF
:100F1000044AC1F30221515CC840704768000020B8
:100F200000100240C44000080448054900684968B0
:100F3000044AC1F3C221515CC840704768000020D8
:100F400000100240C440000812A185B00FC98DE80E
:100F50000F0014A0144A006804905168134801F06F
:100F60000C03042B10D0082B0ED1C1F38343C9030B
:100F70001DF803000AD5516804AAC1F34041515C31
:100F80000A4A5043B0FBF1F005B0704708494843A6
:100F9000FAE7000002030405060708090A0B0C0D16
:100FA0000E0F1010010200000010024000127A0023
:100FB00000093D002DE9F84F04460078B94DC007FF
:100FC00048D06868C0F38100012807D06868C0F382
:100FD0008100022809D16868C00306D5286880030B
:100FE00038D5606800286FD034E06068B0F5803F85
:100FF0000BD010B1B0F5A02F11D0286820F48030AC
:101000002860286820F4802002E0286840F48030BE
:101010002860606888B1FFF701FE064609E028688D
:1010200040F480202860F0E7FFF7F8FD801B64287B
:1010300075D828688003F7D50CE0FFF7EFFD06466A
:1010400005E000BFFFF7EAFD801B6428F0D82868A0
:101050008003F7D42078944E80074FF001094FF0B9
:1010600000083BD5686810F00C0F07D06868C0F323
:101070008100022809D16868C00306D42868800767
:1010800014D5206901281FD110E02069B0B1C6F83D
:101090000090FFF7C3FD074605E000BFFFF7BEFD68
:1010A000C01B0228C4D828688007F7D52868616962
:1010B00020F0F80040EAC10028600FE0C6F8008088
:1010C000FFF7ACFD074606E0E9E000BFFFF7A6FD2D
:1010D000C01B022823D828688007F7D4207800078F
:1010E0002CD57248A169D9B1C0F80090FFF796FDE0
:1010F000074604E0FFF792FDC01B02280FD8686A7C
:101100008007F7D56A484FF4FA510068B0FBF1F058
:10111000009000BF0098411E0091FAD20EE080E0DE
:10112000C0F80080FFF77AFD074604E0FFF776FD80
:10113000C01B022875D8686A8007F7D4207840075A
:1011400060D5E8690027C00008D4E86940F0805005
:10115000E861E869012700F0805000905548016877
:10116000C90513D40168834641F480710160FFF71B
:1011700055FD824606E000BFFFF750FDA0EB0A00D8
:1011800064284ED8DBF80000C005F5D5E0680128DA
:101190000AD008B1052813D0286A20F0010028627F
:1011A000286A20F0040002E0286A40F0010028626A
:1011B000E06841F2883B98B1FFF730FD82460BE0D2
:1011C000286A40F004002862EEE700BFFFF726FD22
:1011D000A0EB0A0159455AD8286A8007F6D50CE0D9
:1011E000FFF71CFD824605E0FFF718FDA0EB0A01A2
:1011F00059454CD8286A8007F6D41FB1E86920F019
:101200008050E861E06988B36968C1F3810102290F
:1012100045D00228C6F8608004D0FFF7FFFC0446E2
:1012200038E034E0FFF7FAFC074604E0FFF7F6FC8D
:10123000C01B02282BD828688001F7D4206AB0F59B
:10124000803F05D16868A16820F4003008436860D9
:10125000D4E908010843696821F4741108436860FF
:10126000C6F86090FFF7DAFC044606E015E000BF20
:10127000FFF7D4FC001B022809D828688001F7D5A5
:101280000BE000BFFFF7CAFC001B022802D90320B5
:10129000BDE8F88F28688001F4D40020F8E7012029
:1012A000F6E7000000100240000042428004424283
:1012B00068000020007000407047000038B5044608
:1012C0000068426881684B0605D4CB0703D05306FB
:1012D00001D5216C04E08B0707D5130605D5616C99
:1012E00001B02046BDE83040084711F0600F3FD004
:1012F00093063DD54B060AD594F85130032B34D0D4
:10130000636D43F004036365C368836800938906D3
:1013100009D5616D41F00101616581680091016845
:1013200021F040010160606D002821D020684168F3
:1013300021F0E0014160012084F85100900718D0AD
:101340002068416821F0030141600C4DE06C18B148
:101350004563E06CFFF71CFBA06C002808D04563D8
:10136000A06CBDE83840FFF713BBC16880680090EF
:1013700038BD2046FFF7A0FF38BD0000B9210008A6
:1013800070B5040005D00025A56294F8510010B195
:1013900004E0012070BD204600F034F8022084F8FB
:1013A00051002068016821F040010160D4E9010189
:1013B0000843D4E903121143084361690843218BB0
:1013C00001F400710843E1690843216A0843A16AF6
:1013D000084321680860A069042101EA1040616A9D
:1013E0000843216848602168E06A08612068C16993
:1013F00021F40061C1616565012084F8510000207D
:1014000070BD000030B5284D036800242748022134
:10141000032285B0AB421FD1836943F480538361BB
:101420008069234D00F480500490A020CDE9000194
:10143000039269462846FFF709FB4020CDE90004E6
:10144000694628460294FFF701FB0022114623203B
:10145000FFF778FC232023E0164DAB4222D1C3696D
:1014600043F48043C361C069134D00F4804004908D
:101470004FF42040CDE90001039269462846FFF76A
:10148000E5FA4FF48040CDE900046946284602940D
:10149000FFF7DCFA002211462420FFF753FC24203A
:1014A000FFF744FC05B030BD0030014000100240A1
:1014B0000008014000380040000C01402DE9F84FC1
:1014C000044640680026984617460D464FF004092A
:1014D000B0F5827F01D1A06890B194F85000012846
:1014E00019D04FF0010B84F850B0FFF797FB009034
:1014F00094F851004FF0000A01280ED002267FE038
:1015000084F8519013460A462046CDF8008000F03A
:1015100031F9BDE8F88F0220FBE7002D6FD0002FD6
:101520006DD084F85190C4F854A0A563A787E787CD
:10153000C4F830A0A4F834A0A4F836A0C4F840A0A1
:10154000C4F844A0A0684FF40047B84204D1206812
:10155000016821F48041016020680168490603D4D4
:10156000016841F040010160E068B8B133E02068F3
:101570008168C90706D0007B05F8010BE08F401E8B
:10158000E0870BE0B8F1000F23D0B8F1FF3F05D0A2
:10159000FFF744FB0099411A41451AD2E08F002819
:1015A000E5D11BE020688168C90706D0C06825F82E
:1015B000020BE08F401EE0870DE0B8F1000F08D06D
:1015C000B8F1FF3F07D0FFF729FB0099411A4145C9
:1015D00001D3032614E0E08F0028E3D16068B0F562
:1015E000827F0AD1A068B84202D0B0F5806F04D1E2
:1015F0002068016821F040010160606D00B10126A2
:1016000084F851B084F850A0304682E72DE9F84FB5
:10161000044690F850000026994617460D460128CA
:101620000DD04FF0010B84F850B0FFF7F7FA804669
:1016300094F85100B246012804D0022694E002201A
:10164000BDE8F88F002D7BD0002F79D0032084F8DF
:101650005100C4F854A02563A786E786C4F838A0D3
:10166000A4F83CA0A4F83EA0C4F844A0C4F840A04C
:10167000A068B0F5004F04D12068016841F48041B2
:10168000016020680168490603D4016841F0400107
:101690000160E068B0F5006F606804D030B3E08EA0
:1016A000012823D03EE010B1E08E01281AD135F890
:1016B000021B206805E020688168890706D535F897
:1016C000021BC160E08E401EE0860BE0B9F1000F06
:1016D00034D0B9F1FF3F05D0FFF7A0FAA0EB080125
:1016E00049452BD2E08E0028E5D11EE0216815F88F
:1016F000010B087306E020688168890706D515F894
:10170000011B0173E08E401EE0860BE0B9F1000F73
:1017100014D0B9F1FF3F05D0FFF780FAA0EB080124
:1017200049450BD2E08E0028E5D14B46012202212B
:101730002046CDF8008000F047FD10B1032613E0ED
:1017400011E042464946204600F026FD18B1012628
:101750002020606508E0A06818B92068C16880682A
:101760000090606D00B1012684F851B084F850A05B
:10177000304665E72DE9F84F044690F85000002602
:101780000A9F9A4693460D464FF0010801280ED055
:10179000012084F85000FFF741FA814694F8510087
:1017A000616801280CD0B1F5827F07D102E00220E8
:1017B000BDE8F88FA16809B9042801D00226BDE070
:1017C00055B1BBF1000F07D0BAF1000F04D094F867
:1017D0005100012802D004E00126AFE0052084F882
:1017E000510000206065C4F838B0A4F83EA0A4F809
:1017F0003CA02563A4F836A0A4F834A0206460645B
:1018000020680168490603D4016841F04001016085
:10181000E068B0F5006F606804D0E8B3E08E01289E
:101820003BD06AE010B1E08E01282ED1216835F856
:10183000020BC860E08E401EE08626E0B8F1000F83
:101840000DD0E08E58B120688168890707D535F83A
:10185000021BC160E08E401EE0864FF00008E08F62
:1018600058B120688168C90707D0C0682BF8020BFF
:10187000E08F401EE0874FF00108781C05D0FFF78D
:10188000CDF9A0EB0900B84246D2E08E0028D5D1B0
:10189000E08F0028D2D136E0FFE7216815F8010B70
:1018A0000873E08E401EE08627E000BFB8F1000F0D
:1018B0000DD0E08E58B120688168890707D515F8EA
:1018C000011B0173E08E401EE0864FF00008E08FA0
:1018D00058B120688168C90707D0C0680BF8010BB0
:1018E000E08F401EE0874FF00108781C05D0FFF71D
:1018F00095F9A0EB0900B8420ED2E08E0028D5D1B0
:10190000E08F0028D2D13B46012202212046CDF8AB
:10191000009000F059FC08B103260FE04A46394612
:10192000204600F039FC18B101262020606505E052
:10193000A06818B92068C16880680090012084F808
:101940005100002084F85000304631E74FF0E0218C
:101950000428086903D020F004000861704740F0B3
:101960000400FAE7704710B5401EB0F1807F01D344
:10197000012010BD4FF0E02460610F21601700F0DE
:10198000D5FB0020A06107202061002010BD10B50C
:10199000FFF7E8FF10BD7047704730B590F83C2066
:1019A000012A20D0012280F83C20022380F83D301B
:1019B00003685C6824F070045C6003685C680D6810
:1019C0002C435C6003689C6824F080049C6003687E
:1019D0009C6849680C439C6080F83D20002180F899
:1019E0003C10084630BD022030BD10B5040003D0C5
:1019F00094F83D0010B107E0012010BD002084F8EC
:101A00003C00204600F00CF8022084F83D00211D27
:101A1000206800F08BFC012084F83D00002010BD00
:101A200008B500680B49884212D10B48C16941F0E2
:101A30000401C161C069002200F004000090114659
:101A40001E20FFF77FF9BDE808401E20FFF76EB9A2
:101A500008BD000000080040001002400168CA688C
:101A600042F00102CA600068016841F001010160B2
:101A70000020704770B5044690F83C00012817D04C
:101A8000012584F83C50022084F83D0020688268DB
:101A900022F0770222F47F4282600868502837D013
:101AA0000DDC202859D005DC88B3102841D151E045
:101AB000022070BD302853D040283AD13FE0602842
:101AC0002ED070280BD0B0F5805F03D0B0F5005F4A
:101AD0002FD110E02068816821F0070115E0CB6864
:101AE000D1E90121206800F057FC2168886840F0A6
:101AF000770088601DE0CB68D1E90121206800F003
:101B00004BFC2068816841F48041816011E01EE057
:101B1000CA684968206800F051FC5021206806E03E
:101B2000CA684968206800F05AFC6021206800F00B
:101B30003DFC84F83D50002084F83C0070BDCA682C
:101B40004968206800F03AFC40212068EFE7002156
:101B50002068ECE710212068E9E720212068E6E70B
:101B600030212068E3E7704770B5044600680169DA
:101B70004FF00005C943890715D4C168C9438907D7
:101B800011D4E91E01610120207720688069800757
:101B9000204602D0FFF7E7FF04E000F098F8204667
:101BA00000F096F8257720680169C943490717D4E2
:101BB000C168C943490713D46FF0040101610220D1
:101BC00020772068806910F4407F204602D0FFF71C
:101BD000CAFF04E000F07BF8204600F079F8257792
:101BE00020680169C943090716D4C168C9430907B8
:101BF00012D46FF008010161042020772068C069C9
:101C00008007204602D0FFF7AEFF04E000F05FF847
:101C1000204600F05DF8257720680169C943C906B0
:101C200017D4C168C943C90613D46FF0100101610C
:101C3000082020772068C06910F4407F204602D039
:101C4000FFF791FF04E000F042F8204600F040F872
:101C5000257720680169C943C90708D1C168C9430C
:101C6000C90704D1891E0161204600F033F82068BD
:101C70000169C943090609D4C168C943090605D4E5
:101C80006FF0800101612046FFF785FE2068016941
:101C9000C943490609D4C168C943490605D46FF050
:101CA00040010161204600F023F820680169C94322
:101CB00089060BD4C168C943890607D46FF0200197
:101CC00001612046BDE87040FFF766BE70BD7047F9
:101CD0007047000000680449884203D10349C8885E
:101CE000401CC88070470000000800400000002031
:101CF0007047704770B5026804461068D168536930
:101D000010F00F0F50D003F0010501F49076354329
:101D10005DD0C20705D0CA0503D5E26B42F00102CF
:101D2000E263420705D5DA0703D0E26B42F0020214
:101D3000E263820705D5DA0703D0E26B42F00402C2
:101D4000E263020705D5DA0703D0E26B42F008022E
:101D5000E263E26B002A33D0800604D5880602D500
:101D6000204600F064FB20684069E16BC0F38010FE
:101D7000090700D428B3204600F04BFB20684169D6
:101D800049061AD5416921F040014161606BA0B15B
:101D90001B494163606BFEF7FBFD002810D0606BB0
:101DA000416BBDE870400847830610D58B060ED501
:101DB0002046BDE8704000F03ABB2046FFF799FF8F
:101DC00070BD2046FFF795FF0020E06370BD03065D
:101DD00006D50B0604D52046BDE8704000F02ABCAD
:101DE0004006F3D54806F1D5D168204621F04001E0
:101DF000D160202184F8391000F0B0F870BD0000E7
:101E00000324000870B5040004D094F839000025BC
:101E100010B106E0012070BD84F83850204600F073
:101E200023F8242084F839002068C16821F4005187
:101E3000C160204600F046FB2068016921F4904112
:101E400001612068416921F02A0141612068C1686F
:101E500041F40051C160E563202084F8390084F822
:101E60003A00002070BD000070B503682748264E78
:101E7000002402210322051586B0B3421ED18369D6
:101E800043F4804383618069214E00F480400490D4
:101E90000802CDE90001039269463046FEF7D6FDFF
:101EA000CDE90054694630460294FEF7CFFD00228A
:101EB00011462520FEF746FF252020E0154EB342AF
:101EC0001FD1C36943F48023C361C069CDE90051C8
:101ED00000F48020CDE903200F4D69462846FEF727
:101EE000B5FDE814CDE90004694628460294FEF7E2
:101EF000ADFD002211462720FEF724FF2720FEF724
:101F000015FF06B070BD000000380140001002400F
:101F10000008014000480040000C0140704790F864
:101F20003930202B18D1A9B1A2B190F83830012B4B
:101F300012D001628284C2840021C163212280F810
:101F4000392080F838100068C16841F08001C16014
:101F50000020704701207047022070477047FEE75D
:101F60002DE9F04F364885B0816941F0100181615B
:101F7000816901F010010491816941F020018161C2
:101F8000816901F020010491816941F004018161BE
:101F9000816901F004010491816941F008018161C6
:101FA0008069DFF8A09000F008004FF4005404901E
:101FB000002221464846FEF72BFEDFF88CA048F2AF
:101FC0001007002239465046FEF722FEDFF87CB0AB
:101FD00041F2F828002241465846FEF719FE012535
:101FE000CDE9004500240226CDE90246694648466F
:101FF000FEF72CFD4FF44040CDE900046946484609
:102000000294FEF723FD00970396CDE9015469463B
:102010005046FEF71BFDCDF800800396CDE9015434
:1020200069465846FEF712FD2802CDE900046946CC
:1020300058460294FEF70AFD05B0BDE8F08F000097
:10204000001002400010014000080140000C014057
:102050000E4810B50C4901604FF4827141600021B7
:1020600081600122C160C0E90412520282613822FB
:10207000C0E90721416281620A21C162FFF780F94C
:10208000002800D0FEE710BD0030014070000020A5
:102090000E4810B50C4901604FF482714160002177
:1020A00081600122C160C0E90412520282613822BB
:1020B000C0E90721416281620A21C162FFF760F92C
:1020C000002800D0FEE710BD00380040C800002006
:1020D00010B5144886B01249016048F6A0410024AA
:1020E000C0E901144FF4FA61C0E903148021816151
:1020F000FFF77BFC00B1FEE74FF48050009069468B
:102100000848FFF7B7FC00B1FEE7049404A90548AE
:102110000594FFF742FC002800D0FEE706B010BD92
:102120000008004020010020FEE770470907090E63
:10213000002806DA00F00F0000F1E02080F8141DFE
:10214000704700F1E02080F80014704770470000ED
:1021500010B50A4C012202212046FEF759FD00224B
:1021600002212046FEF754FD1420FEF75DFC2046B8
:102170000122BDE810400221FEF74ABD00080140DF
:102180000148FFF79BB80000700000200148FFF7EE
:1021900095B80000C800002038B50B4600920446F0
:1021A0000022802100F010F8002804D0606D40F07B
:1021B00020006065032038BD10B5406A0021C1874A
:1021C000C186FFF779F810BD2DE9F0411D4617468D
:1021D0000E460446DDF8188035E0681C33D02DB17A
:1021E000FEF71CFDA0EB0800A8422CD32068416834
:1021F00021F0E00141606068B0F5827F0BD1A068FA
:10220000B0F5004F02D0B0F5806F04D120680168AE
:1022100021F040010160A06AB0F5005F0AD120689A
:1022200001684DF6FF72114001602068016841F4B9
:1022300000510160012084F85100002084F8500012
:102240000320BDE8F0812068806836EA000004D0F1
:102250000020B842C1D10020F3E70120F9E7704720
:1022600010B5FEF7E1FCBDE81040FFF790BB30B5BC
:102270008FB001210804CDE900100024029402254A
:102280000491CDE907504FF4E01009906846FEF73D
:1022900091FE00B1FEE70F20CDE90A054FF4806002
:1022A000CDE90C400E9002210AA8FEF77DFD00B199
:1022B000FEE7FEF723FE4FF47A71B0FBF1F0FFF773
:1022C00052FB0420FFF742FB00221146501EFEF78E
:1022D00039FD0FB030BD00000D48016841F001012B
:1022E000016041680B4A1140416001680A4A11408F
:1022F0000160016821F480210160416821F4FE0140
:1023000041604FF41F0181600449C00308607047B9
:10231000001002400000FFF8FFFFF6FE08ED00E0AD
:102320000148FFF721BC000020010020F0B5026841
:10233000164B174C174D4FF08047984205D0B842C6
:1023400003D0A04201D0A84203D122F070064A680F
:102350003243984205D0B84203D0A04201D0A842EF
:1023600003D122F44074CA68224322F080044A69EF
:10237000224302608A68C2620A688262984201D17E
:102380000969016301214161F0BD0000002C014099
:10239000000400400008004010B5846842EA0322AF
:1023A00024F47F440A432243826010BD826822F0F5
:1023B00070020A4342F007018160704710B5036A5A
:1023C000046A24F001040462846924F0F00444EAFD
:1023D000021423F00A020A438461026210BD10B5A0
:1023E000036A23F0100303628369046A23F47043D1
:1023F00043EA023224F0A00343EA01118261016240
:1024000010BD10B5406A0021C185C184FFF771FC81
:1024100010BD0168CA6822F49072CA6001684A69F6
:1024200022F001024A61202180F83A10704710B56D
:1024300090F83A10222901D0022010BD8168B1F530
:10244000805F11D00169002901681FD0496801F03F
:102450007F03816A4A1C82620B70C18D491E090488
:10246000090CC18518D02BE00269816A002A026834
:10247000526805D0D2B20A80816A491C8162ECE7B9
:10248000C2F308020A80816A891CF7E74A68816AF8
:102490004B1C83620A70E0E70168CA6822F02002E0
:1024A000CA600168CA6822F48072CA6001684A6919
:1024B00022F001024A61202180F83A10FFF72EFD38
:1024C000002010BD2DE9F041044600680169E26872
:1024D00021F44051114301612169A06808436169F9
:1024E00008432168CA6841F20C639A430243CA60F8
:1024F00020684169A26921F44071114341614C494E
:1025000020686425322688423CD1FEF70DFD00EBA1
:10251000C00101EB001061688900B0FBF1F7FEF724
:1025200003FD00EBC00101EB00106168B0468900BB
:10253000B0FBF1F0B0FBF5F06FF01801484307EB8A
:10254000800106EB0110B0FBF5F000F0F006FEF79D
:10255000EBFC00EBC00101EB001061688900B0FBEF
:10256000F1F0B0FBF5F006EB0016FEF7DDFC00EB3A
:10257000C00101EB001061688900B0FBF1F7FEF7C4
:10258000D3FC3BE0FEF7C0FC00EBC00101EB001008
:1025900061688900B0FBF1F7FEF7B6FC00EBC00103
:1025A00001EB00106168B0468900B0FBF1F0B0FBB0
:1025B000F5F06FF01801484307EB800106EB0110BE
:1025C000B0FBF5F000F0F006FEF79EFC00EBC0015A
:1025D00001EB001061688900B0FBF1F0B0FBF5F091
:1025E00006EB0016FEF790FC00EBC00101EB0010BB
:1025F00061688900B0FBF1F7FEF786FC00EBC001D3
:1026000001EB001061688900B0FBF1F0B0FBF5F060
:102610006FF01801484307EB800108EB0110B0FB95
:10262000F5F0216800F00F0030448860BDE8F081CB
:102630000038014090F83910212901D0022070475C
:102640008168B1F5805F016A0BD04A1C02620268A2
:1026500009785160C18C491E0904090CC1840ED04F
:1026600017E009880268C1F3080151600169002977
:10267000016A02D0491C0162ECE7891CFBE7016892
:10268000CA6822F08002CA600068C16841F0400157
:10269000C1600020704700000148FFF72BBB00001D
:1026A000600100200148FFF725BB0000A0010020C9
:1026B000FEE700000FB4084B10B504A902AA039866
:1026C00000F0E4F8044602A9002000F076FC204661
:1026D00010BC5DF814FB0000BB2F000802E008C826
:1026E000121F08C1002AFAD170477047002001E08C
:1026F00001C1121F002AFBD1704700000149086088
:10270000704700006C0000202DE9FF5F82B00021BF
:10271000DDE90430020DDDF840B0034318D044F683
:102720001050A2F2FF3242431514119801281FD015
:10273000A5EB0B00401C5FEA000A4FF000064E4F6D
:10274000DFF83891B046504615D5CAF1000413E0C1
:10275000119801244AA3012801D16FEA0B010298C4
:10276000119AC0E90031C0E9024206B0BDE8F09F0D
:10277000CBF10000DFE704460021404A491842EB54
:102780000450CDE9001012E0E00707D032463B4686
:1027900040464946FDF77FFD8046894632463B4626
:1027A00010461946FDF777FD06460F466410002CCB
:1027B000EAD1DDE90401DDE90023BAF1000F06DA10
:1027C000FDF769FD42464B46FDF765FD05E0FDF767
:1027D000D4FD42464B46FDF7D0FD04460E4600228E
:1027E000284BFEF787F803D84FF0FF30014607E08B
:1027F0000022254B20463146FDF76BFFFEF761F8BE
:10280000102409E0002C0ADB0A220023FDF79CFEBD
:10281000039B30321A55641E50EA0102F2D1641C47
:10282000039AC4F111031444119A012A03D001221E
:1028300008430DD10AE0084304D000204FF0110BEB
:10284000119072E7A3EB0B056D1E0DE05B4504DDF7
:102850004FF0000205F1010504E003DA4FF0000239
:10286000A5F10105002AECD002981199C0E90231C6
:10287000C0E9004579E70000000014400000F03F87
:10288000300000000000F0430000E03F2DE9FF4F62
:1028900095B09B468946064600250FE2252877D14C
:1028A00000242746F84A0121059400E0044316F865
:1028B000013F203B01FA03F01042F7D130782A287B
:1028C00011D06FF02F033078A0F13002092A16D80A
:1028D000059A44F0020402EB820203EB4202104428
:1028E000761C0590EFE759F8042B0592002A03DACD
:1028F000504244F40054059044F00204761C3078B1
:102900002E2816D116F8010F44F004042A280DD001
:102910006FF02F023078A0F13003092B09D807EBB4
:10292000870302EB4303C718761CF3E759F8047BCF
:10293000761C30786C280FD006DC4C2817D068281D
:102940000DD06A2814D104E0742810D07A280FD151
:102950000DE044F400140AE044F4801401E044F46F
:1029600040147278824202D104F58014761C761CE1
:10297000307866280BD013DC582877D009DC002883
:1029800075D04528F6D04628F4D047281AD19DE1C5
:1029900018E0632835D0642879D0652812D195E1F4
:1029A000702873D008DC6728F1D069286FD06E28B2
:1029B0000DD06F2806D1B5E073282CD0752875D0BE
:1029C000782874D05A46179990476D1C75E1C4F366
:1029D0000250022809D003280DD0D9F8001004288D
:1029E0000DD00D6009F1040967E1D9F80010EA176C
:1029F000C1E90052F6E7D9F800100D80F2E70D703A
:102A0000F0E719F8041B8DF8001000208DF8010084
:102A1000EA46012003E059F804AB4FF0FF306107AC
:102A20004FF0000102D40DE008F101018846B942DF
:102A30000FDA8045F8DB1AF808100029F4D108E015
:102A400008F1010188468142FADB1AF808100029D2
:102A5000F6D105985B46A0EB080721463846179A41
:102A600000F094FA284400EB080507E04DE029E166
:102A70000DE01AF8010B5A4617999047B8F1010872
:102A8000F7D25B4621463846179A13E142E00A2204
:102A90000092C4F302524FF0000A022A08D059F8FB
:102AA00004CB032A4FEAEC710AD00DE029E02AE0BA
:102AB00009F1070121F00702F2E802C1914609E09D
:102AC0000FFA8CFC4FEAEC71042A03D14FFA8CFC0C
:102AD0004FEAEC71002907DA0A460021DCF1000C0C
:102AE00061EB02012D2202E0220504D52B228DF894
:102AF0000420012203E0E20701D02022F7E79046FC
:102B000059E00A2102E010220DE010214FF0000AE6
:102B100000910BE010224FF0000A44F00404082753
:102B2000009203E008224FF0000A0092C4F3025220
:102B3000022A05D059F804CB0021032A08D009E065
:102B400009F1070121F00702F2E802C1914605E010
:102B50001FFA8CFC042A01D10CF0FF0C4FF0000886
:102B6000220728D5702806D0009B83F0100353EA73
:102B70000A0305D00EE040228DF80420012208E06F
:102B80005CEA010206D030228DF804208DF80500A1
:102B900002229046009B83F0080353EA0A030AD1FD
:102BA0005CEA010201D1620705D530228DF80420CC
:102BB0004FF001087F1E582804D034A003900EA8BF
:102BC00002900DE036A0F9E753466046009AFDF703
:102BD000BBFC84460398825C0298401E02900270FF
:102BE0005CEA0100F0D1029806A9081A00F1200A57
:102BF000600702D524F4803400E00127574502DD48
:102C0000A7EB0A0000E0002000EB0A010090059805
:102C10004144401A0590E00306D45B462146179ACA
:102C2000059800F0B3F90544002706E001A85A46CC
:102C3000C05D179990476D1C7F1C4745F6DBE0038C
:102C40000CD55B462146179A059800F09FF905447C
:102C500004E030205A46179990476D1C0099481E91
:102C600000900029F5DC08E0029802995A460078A5
:102C7000491C0291179990476D1CBAF10001AAF105
:102C8000010AF1DC65E1000009280100303132332E
:102C90003435363738396162636465660000000098
:102CA0003031323334353637383941424344454682
:102CB0000000000000F058F90544761C3078002828
:102CC0007FF4ECAD19B02846BDE8F08F620700D460
:102CD000062709F1070222F0070CFCE80223E1466F
:102CE00003F000485FEA080C02D00FF2702C0DE0F0
:102CF0005FEA045C02D50FF2682C07E05FEAC47C4F
:102D000002D00FF2602C01E0AFF2700C4FF0FF38F0
:102D100023F00043CDF850C065280CD006DC4528D0
:102D200009D046281DD047283DD13DE0662818D05F
:102D300067287ED138E00021112F01DB112000E04F
:102D4000781CCDE9000106A90EA8FFF7DDFCDDE93E
:102D50000F010E9A03910021009207F1010A0491DC
:102D60004DE04FF000400097CDE9011006A90EA8F4
:102D7000FFF7CAFCDDE90F0203920E9B11990022B6
:102D8000DDF80CA00093049211B9791C00EB010A44
:102D9000B7EB0A0004D4C0F1FF3007F1010A049038
:102DA000AAEB0700019044E0012F00DA012700217F
:102DB000112F01DD112000E03846CDE9000106A900
:102DC0000EA8FFF7A1FCDDE90F010E9A0391002187
:102DD00004910092BA4621070CD40399514500DAB8
:102DE0008A46BAF1010F05DD009AAAF10101515C92
:102DF000302908D0B84202DA10F1040F06DA0121B6
:102E0000CDE9011015E0AAF10101E9E7002805DC90
:102E1000049901440491AAEB000102E0411C5145D0
:102E200000DD8A460499401A401C01904FF0004092
:102E30000290200704D40198504501DBCDF80480AE
:102E400000208DF84F0002980DF14F07B0F1004FB0
:102E500025D02B200E9002984FF0020800280CDAA3
:102E6000404202902D200E9007E00A210298FDF7C3
:102E700055FB3031029007F8011DB8F10001A8F1AF
:102E80000108F2DC02980028EFD1791E0E98087034
:102E9000307800F0200040F0450007F8020D12A83D
:102EA000C01B00F107081498007800B1012000EB66
:102EB0000A01019801EBE07105984144401A401E57
:102EC0000590E00306D45B462146179A059800F06A
:102ED0005DF805441498007818B15A461799904740
:102EE0006D1CE00324D55B462146179A059800F037
:102EF0004DF805441CE00498002807DBDDE90301D8
:102F0000884203DD0098405C179901E01799302052
:102F10005A469047049805F10105401C0490019819
:102F2000401E019004D12E205A46179990476D1CDF
:102F3000BAF10001AAF1010ADDDC05E017F8010B86
:102F40005A46179990476D1CB8F10001A8F1010885
:102F5000F4DC5B462146179A0598ABE62D0000008D
:102F60002B000000200000002DE9F0410446002560
:102F70001E461746880404D405E039462020B04791
:102F80006D1C641EF9D52846BDE8F0812DE9F0419D
:102F9000044600251E469046C80301D5302700E0B0
:102FA0002027880404D505E041463846B0476D1C0B
:102FB000641EF9D52846BDE8F0810A68531C0B60F1
:102FC0001070704770B50546002405A221462846BA
:102FD00000F03CFC641CE4B2142CF6D370BD00007D
:102FE0002000000010B500F043F800090349C001BB
:102FF000B1FBF0F0BDE81040FDF745BA999E3600F0
:1030000010B500F035F800090349C001B1FBF0F03C
:10301000BDE81040FDF737BA999E360010B50C2078
:1030200000F0FCFCBDE81040162000F061BD10B5BA
:103030000C2000F0F3FCBDE81040162000F09CBD11
:1030400010B50C2000F0EAFC322000F003FFBDE8D0
:103050001040042000F04CBD10B50C2000F0DEFC48
:10306000322000F0F7FEBDE81040042000F040BD23
:1030700010B50C2000F0D2FC00F024F8C00604D4F7
:103080001420FDF7D1FC002010BDBDE81040272022
:1030900000F0C4BC10B50C2000F0C0FC322000F0E1
:1030A000D9FEBDE81040072000F022BD10B50C206D
:1030B00000F0B4FC322000F0CDFEBDE81040072047
:1030C00000F016BD0B2000F0A9BC0B2000F0DABC0C
:1030D00010B50C2000F0A2FCBDE81040172000F055
:1030E00007BD10B50C2000F099FCBDE8104017207A
:1030F00000F042BD2DE9F047DFF8B09100204946CD
:1031000000F0C2FE05460C4600F0E4FE684E314673
:10311000FDF777F8FDF7C9F92A462346FDF7BBF816
:10312000FDF7D6F9634C4946A060002000F0ACFEE4
:1031300007460D4600F008FF3146FDF762F8FDF73F
:10314000B4F93A462B46FDF7A6F8FDF7C1F9E06061
:1031500000F0CEF8FDF7A9F9574D584E2A463346F0
:10316000FDF799F8FDF7B4F9206100F0FBF8FDF7E1
:103170009CF92A463346FDF78EF8FDF7A9F9606100
:103180000020494600F080FE07460D46FFF758FF35
:10319000FDF77EF94A4EDFF82C8132464346FDF7B3
:1031A0007AF83A462B46FDF776F8FDF791F960621A
:1031B0000020494600F068FE07460D46FFF74CFF29
:1031C000FDF766F932464346FDF765F83A462B4669
:1031D000FDF761F8FDF77CF90146A062606AFCF733
:1031E000B8FFE0620020494600F04EFE07460D465B
:1031F000FFF750FFFDF74CF932464346FDF74BF819
:103200003A462B46FDF747F8FDF762F96063002068
:10321000494600F039FE07460D46FFF747FFFDF728
:1032200037F932464346FDF736F83A462B46FDF766
:1032300032F8FDF74DF90646A063606B31468246D1
:10324000FCF787FFE063616A054689465046FCF754
:10325000D2FF2064A16A30468846FCF7CCFF606448
:10326000E16A28460F46FCF7C6FFA064514648466F
:10327000FCF7C7FFA06131464046FCF7C2FFE061A2
:1032800029463846FCF7BDFF2062FFF7ABFE2065FC
:10329000FFF7B6FE01466065206DFCF75AFF4FF060
:1032A000FF31FCF7ECFFA065BDE8F08700000840A7
:1032B00000002041000000209A9999999999F93FBE
:1032C0007B14AE47E17AC43F10B5084CD4E90B013A
:1032D000FDF71AF901D2E06A2063D4E91201FDF783
:1032E00013F901D2A06CE06410BD000000000020C2
:1032F00070B500242546FFF791FE00282BD000BFB3
:10330000FFF78CFE641CE4B205440A2CF8D30020BD
:103310004FF0804100F0B8FD4FF060420E4BFCF7DB
:10332000BAFF06460C462846FDF7ADF80B49FCF7F8
:1033300068FFFDF7BAF84FF0FF32FDF78DF8002275
:10334000074BFCF7A8FF32462346FDF716F8BDE809
:103350007040FDF7BDB870BDAFD171410000204194
:1033600000408F4070B500242546FFF760FE00281E
:103370002BD000BFFFF75BFE641CE4B205440A2CAF
:10338000F8D300204FF0804100F07EFD4FF0604206
:103390000E4BFCF780FF06460C462846FDF773F8F7
:1033A0000B49FCF72EFFFDF780F84FF0FF32FDF7D9
:1033B00053F80022074BFCF76EFF32462346FCF71A
:1033C000DCFFBDE87040FDF783B870BDAFD171413F
:1033D0000000204100408F4010B5AA4CE08814281E
:1033E0006AD22078012809D1FFF7ECFD0220FFF70F
:1033F000E9FD0320FFF7E6FD022020706278A2A11C
:10340000A748FFF757F90021A54A084600F01EFA21
:10341000A068FDF74AF802460B46A2A1A048FFF7B4
:1034200049F99F4A0021012000F010FAE068FDF7F9
:103430003CF802460B469EA19948FFF73BF9984A93
:103440000A21012000F002FA2069FDF72EF8024659
:103450000B469AA19248FFF72DF9914A00210220CC
:1034600000F0F4F96069FDF720F802460B4696A1DA
:103470008B48FFF71FF98A4A0A21022000F0E6F97B
:10348000206DFDF712F802460B4692A18448FFF723
:1034900011F9834A0021032000F0D8F9606DFDF78F
:1034A00004F802460B468EA17D48FFF703F97C4ADB
:1034B0000A21032000F0CAF9E088143814286BD2DE
:1034C000207802280AD10120FFF77CFD0220FFF7B7
:1034D00079FD0320FFF776FD0320207062786AA152
:1034E0006F48FFF7E7F800216D4A084600F0AEF993
:1034F000606AFCF7DAFF02460B467CA16848FFF7DA
:10350000D9F8674A0021012000F0A0F9A06AFCF771
:10351000CCFF02460B4678A16148FFF7CBF8604A22
:103520000A21012000F092F9206CFCF7BEFF024650
:103530000B4674A15A48FFF7BDF8594A00210220F2
:1035400000F084F9606CFCF7B0FF02460B4670A1F6
:103550005348FFF7AFF8524A0A21022000F076F9EB
:10356000A069FCF7A2FF02460B466CA14C48FFF78E
:10357000A1F84B4A0021032000F068F9E069FCF74C
:1035800094FF02460B4668A14548FFF793F8444A6A
:103590000A21032000F05AF9E0882838142870D254
:1035A000207803280AD10120FFF70CFD0220FFF745
:1035B00009FD0320FFF706FD01202070627832A18B
:1035C0003748FFF777F80021354A084600F03EF902
:1035D000E06AFCF76AFF02460B4656A13048FFF747
:1035E00069F82F4A0021012000F030F9A06CFCF7A7
:1035F0005CFF02460B4651A12948FFF75BF8284AB9
:103600000A21012000F022F9206AFCF74EFF024651
:103610000B464CA12248FFF74DF8214A0021022019
:1036200000F014F9A06DFCF740FF02460B4648A1DC
:103630001B48FFF73FF81A4A0A21022000F006F95A
:10364000206BFCF732FF02460B4643A11448FFF7FC
:1036500031F8134A0021032000F0F8F8E06CFCF781
:1036600024FF02460B463FA10D48FFF723F80C4A02
:103670000A21032000F0EAF8E0883A2801D300206C
:10368000E08010BD0000002054686F6E6720736FEB
:1036900020746F206D61792069643D25640000000D
:1036A000E001002055313A25302E3266000000003E
:1036B00055323A25302E32660000000049313A2555
:1036C000302E32660000000049323A25302E326634
:1036D0000000000066313A25302E316600000000FF
:1036E00066323A25302E31660000000050313A250E
:1036F000302E32660000000050323A25302E3266FD
:103700000000000051313A25302E326600000000E2
:1037100051323A25302E326600000000636F73315B
:103720003A25302E32660000636F73323A25302E10
:1037300032660000503A25302E326600513A25306C
:103740002E326600636F73503A25302E32660000C9
:10375000663A25302E326600505F703A25302E32A0
:1037600066000000515F703A25302E32660000007E
:1037700010B51E20FDF758F9324C002220212046BA
:10378000FDF746FA012210212046FDF741FA0022FA
:1037900008212046FDF73CFA00224FF400412A4858
:1037A000FDF736FA002280212046FDF731FA01228A
:1037B00040212046FDF72CFA002240212046FDF74B
:1037C00027FA3021002000F061F80520FDF72CF9E0
:1037D0003021002000F05AF80120FDF725F93021B2
:1037E000002000F053F80120FDF71EF920210020F1
:1037F00000F04CF80120FDF717F92821002000F017
:1038000045F80120FDF710F90C21002000F03EF8EA
:103810000120FDF709F90121002000F037F801200F
:10382000FDF702F90621002000F030F80120FDF735
:10383000FBF80221002000F029F8BDE8104001202B
:10384000FDF7F2B8000C01400008014010B5144625
:1038500030B1012806D0022806D0032811D105E096
:10386000803104E0C03102E0943100E0D431C9B2CB
:10387000002000F00BF804E0C1B2012000F006F8CF
:10388000641C20780028F7D110BD00002DE9F0411C
:1038900006460C460220FDF7C7F8354D0EB1012251
:1038A00000E0002280212846FDF7B2F9314F2006C2
:1038B0004FF4004601D5012200E00022314638468F
:1038C000FDF7A6F9600601D5012200E000220821DB
:1038D0002846FDF79DF9A00601D5012200E000224F
:1038E00010212846FDF794F9E00601D5012200E0F9
:1038F000002220212846FDF78BF90122402128468D
:10390000FDF786F9002240212846FDF781F92007BE
:1039100001D5012200E0002231463846FDF778F952
:10392000600701D5012200E0002208212846FDF7AA
:103930006FF9A00701D5012200E0002210212846DE
:10394000FDF766F9E00701D0012200E00022202106
:103950002846FDF75DF9012240212846FDF758F978
:103960002846BDE8F04100224021FDF751B9000092
:10397000000C014000080140FDF75EF9FEF777FCFE
:10398000FEF7EEFAFEF764FBFEF782FB20481F49C4
:103990004FF4E13500240160C0E901540C26C460F5
:1039A000C0E904468461C461FEF72CFA00B1FEE769
:1039B0001748184940300160C0E90154C460C0E9AB
:1039C00004468461C461FEF71DFA00B1FEE7FEF70C
:1039D0007FFB0F484038FEF741F8FFF7C9FEFEF7BE
:1039E000B7FB4FF400540C4DFFF784FBFFF76CFC62
:1039F00000F008F900F08CF921462846FDF704F99B
:103A00006420FDF711F8FFF7E7FCEDE7003801400F
:103A100060010020004800400010014011B5174C23
:103A200083B0002210212046FDF7F2F80520FCF7B4
:103A3000FBFF6423012203A91148FDF7E7FD0520E0
:103A4000FCF7F2FF6423012269460D48FDF736FDBD
:103A50000520FCF7E9FF6423012201A90848FDF7CE
:103A60002DFD012210212046FDF7D2F89DF804001B
:103A70009DF8001004B040EA012010BD000801408C
:103A80007000002031B5184D4FF4805482B00022F0
:103A900021462846FDF7BCF80520FCF7C5FF642346
:103AA000012202A91148FDF7B1FD0520FCF7BCFF7A
:103AB0006423012269460D48FDF700FD0520FCF74F
:103AC000B3FF6423012201A90848FDF7F7FC012296
:103AD00021462846FDF79CF89DF804009DF800104B
:103AE00040EA01203EBD0000000C0140C80000205B
:103AF00011B51F4C83B0002210212046FDF788F835
:103B00000520FCF791FF6423012203A91948FDF762
:103B10007DFD0520FCF788FF6423012269461548D6
:103B2000FDF7CCFC0520FCF77FFF6423012201A9EF
:103B30001048FDF7C3FC0520FCF776FF6423012243
:103B400002A90C48FDF7BAFC0520FCF76DFF012225
:103B500010212046FDF75CF89DF800009DF8041048
:103B6000000440EA01209DF8081004B0084310BD8D
:103B7000000801407000002031B5204D4FF4805402
:103B800084B0002221462846FDF742F80520FCF7C4
:103B90004BFF6423012204A91948FDF737FD0520D6
:103BA000FCF742FF6423012269461548FDF786FCB5
:103BB0000520FCF739FF6423012201A91048FDF715
:103BC0007DFC0520FCF730FF6423012202A90C488C
:103BD000FDF774FC0520FCF727FF0122214628464B
:103BE000FDF716F89DF800009DF80410000440EA67
:103BF00001209DF8081005B0084330BD000C0140BD
:103C0000C80000202DE9F04F3E4C9BB0E06CFCF763
:103C10004CFC81468B46206BFCF747FC824610919A
:103C2000A06DFCF742FC07468846206AFCF73DFC85
:103C300005460E46A06CFCF738FCCDE90E01E06AA3
:103C4000FCF733FCCDE90C01E06BFCF72EFCCDE971
:103C50000A01E069FCF729FCCDE90801A069FCF73D
:103C600024FCCDE906016069FCF71FFCCDE90401E5
:103C70002069FCF71AFCCDE90201E068FCF715FCAD
:103C8000CDE90001A068FCF710FC0B461099024634
:103C9000CDE9189BCDE916A112A880E8E001DDE985
:103CA0000E01CDE91001DDE90C01CDE90E01DDE9E0
:103CB0000A01CDE90C01DDE90801CDE90A01DDE9E0
:103CC0000601CDE90801DDE90401CDE90601DDE9E0
:103CD0000201CDE90401DDE90001CDE90201CDE9F0
:103CE0000023627808490948FEF7E4FC0748FCF71E
:103CF00029FA1BB00549BDE8F04F82B2A1F5F27078
:103D0000FEF70DB9000000203041000884030020B8
:103D10002DE9F04F3F4C8DB0E069FCF7C6FB8146C2
:103D20008A46A069FCF7C1FB049088466069FCF7ED
:103D3000BCFB02900F462069FCF7B7FB00900E46D3
:103D4000E068FCF7B2FB05468B46A068FCF7ADFBCC
:103D500002460498CDE90808CDE90A9A0298CDE90F
:103D600006070B4600988DE82C08CDE9040662781A
:103D700029492A48FEF79EFC2848FCF7E3F9274921
:103D800082B2A1F5AE70FEF7CAF86420FCF74CFED3
:103D9000E06CFCF78AFB82468B46206BFCF785FBC8
:103DA00080468946A06DFCF780FB07460491206A97
:103DB000FCF77BFB05460E46A06CFCF776FBCDE9D5
:103DC0000201E06AFCF771FBCDE90001E06BFCF752
:103DD0006CFB024608A80B4680E8000F04990F48C8
:103DE000CDE90671CDE904560D49C838FEF762FCED
:103DF0000A48C838FCF7A6F9084982B2C839A1F1C7
:103E00009400FEF78CF80DB06420BDE8F04FFCF78D
:103E10000BBE000000000020CC400008BC020020C7
:103E2000FC41000810B5044601461C2000F0C6F80D
:103E30002146BDE810401C2000F0FEB810B5044635
:103E40000146092000F0BAF82146BDE810400920DB
:103E500000F0F2B810B504468C20FFF7EFFF0C20FD
:103E6000FFF7DCFD0C20FFF7D9FD2046FFF7DAFF56
:103E7000FFF728F90446FFF728F90440600701D44A
:103E8000002010BD012010BD2DE9F04106460F466F
:103E9000FCF7C6FC041E0D4618BF0120284320F085
:103EA0000040C0F17F6000F1E040C00F0ED0301C38
:103EB00018BF0120384320F00040C0F17F6000F1BE
:103EC000E040C00F04BF0120FEF718FC2046294641
:103ED000BDE8F08170B500242546FFF7F9F8002809
:103EE0002AD000BFFFF7F4F8641CE4B205440A2CA2
:103EF000F8D300204FF08041FFF7C6FF00220F4BA0
:103F0000FCF7C9F906460C462846FCF7BCFA0C49F2
:103F1000FCF777F9FCF7C9FA4FF0FF32FCF79CFA8F
:103F20000022084BFCF7B7F932462346FCF725FA86
:103F3000BDE87040FCF7CCBA70BD000038D3374103
:103F40000000204100707D4070B500242546FFF739
:103F5000C8F800282AD000BFFFF7C3F8641CE4B2F9
:103F600005440A2CF8D300204FF08041FFF78CFF66
:103F700000220F4BFCF78FF906460C462846FCF74B
:103F800082FA0C49FCF73DF9FCF78FFA4FF0FF324B
:103F9000FCF762FA0022084BFCF77DF93246234613
:103FA000FCF7EBF9BDE87040FCF792BA70BD000079
:103FB00038D337410000204100707D4033B51C4D9F
:103FC0000C4683B0002210212846FCF721FE9DF804
:103FD0000C008DF8004040F080008DF80C00200AA5
:103FE0008DF804000A20FCF71FFD6423012203A9B9
:103FF0001048FDF70BFB0520FCF716FD642301229A
:1040000001A90C48FDF702FB0520FCF70DFD642318
:10401000012269460748FDF7F9FA0520FCF704FD7F
:10402000012210212846FCF7F3FD05B030BD000049
:10403000000801407000002073B51C4E0C464FF480
:10404000805582B0002229463046FCF7E1FD9DF8FC
:1040500008008DF8004040F080008DF80800200A2C
:104060008DF804000A20FCF7DFFC6423012202A97A
:104070000F48FDF7CBFA0520FCF7D6FC642301229C
:1040800001A90B48FDF7C2FA0520FCF7CDFC64231B
:10409000012269460648FDF7B9FA0520FCF7C4FC81
:1040A000012229463046FCF7B3FD7FBD000C0140DC
:1040B000C80000200000000000000000010203040E
:1040C0000607080900000000010203047B2249647E
:1040D000223A222564222C225531223A2225302EE2
:1040E0003366222C225532223A2225302E33662284
:1040F0002C224931223A2225302E3366222C2249A5
:1041000032223A2225302E3366222C22636F7350DE
:1041100031223A2225302E3366222C22636F7350CF
:1041200032223A2225302E3366227D0A000000001A
:104130007B224964223A222564222C225531223ADC
:104140002225302E3366222C225532223A22253067
:104150002E3366222C224931223A2225302E336614
:10416000222C224932223A2225302E3366222C225A
:10417000636F735031223A2225302E3366222C226F
:10418000636F735032223A2225302E3366222C225E
:10419000637353223A2225302E3366222C22637316
:1041A00050223A2225302E3366222C22637351226C
:1041B0003A2225302E3366222C22636F7350223A26
:1041C0002225302E3366222C2266726571223A2215
:1041D00025302E3366222C22505F7065616B223AA7
:1041E0002225302E3366222C22515F7065616B22AE
:1041F0003A2225302E3366227D0A00007B2263732B
:1042000053223A2225302E3366222C226373502209
:104210003A2225302E3366222C22637351223A2211
:1042200025302E3366222C22636F7350223A2225CA
:10423000302E3366222C2266726571223A22253096
:104240002E3366222C22505F7065616B223A222544
:10425000302E3366222C22515F7065616B223A2228
:1042600025302E3366227D0A000000008C420008B3
:104270000000002070000000DC260008FC4200085E
:1042800070000020E0070000EC260008010100009B
:10429000000000000000000000000000000000001E
:1042A000000000000000000000000000000000000E
:1042B00000000000000000000000000000000000FE
:1042C00000000000000000000000000000000000EE
:1042D00000000000000000000000000000000000DE
:1042E00000000000000000000100000010000000BD
:0C42F0000000000000A24A0400000000D2
:04000005080000ED02
:00000001FF
